{"abi":[{"type":"constructor","inputs":[{"name":"_initialTreasury","type":"address","internalType":"address"}],"stateMutability":"nonpayable"},{"type":"function","name":"balances","inputs":[{"name":"","type":"address","internalType":"address"}],"outputs":[{"name":"","type":"uint256","internalType":"uint256"}],"stateMutability":"view"},{"type":"function","name":"claimPayout","inputs":[{"name":"predictionId","type":"uint256","internalType":"uint256"}],"outputs":[],"stateMutability":"nonpayable"},{"type":"function","name":"createPrediction","inputs":[{"name":"_title","type":"string","internalType":"string"},{"name":"_category","type":"string","internalType":"string"},{"name":"_duration","type":"uint256","internalType":"uint256"}],"outputs":[],"stateMutability":"nonpayable"},{"type":"function","name":"getBalance","inputs":[],"outputs":[{"name":"","type":"uint256","internalType":"uint256"}],"stateMutability":"view"},{"type":"function","name":"getContractBalance","inputs":[],"outputs":[{"name":"","type":"uint256","internalType":"uint256"}],"stateMutability":"view"},{"type":"function","name":"owner","inputs":[],"outputs":[{"name":"","type":"address","internalType":"address"}],"stateMutability":"view"},{"type":"function","name":"placeBet","inputs":[{"name":"predictionId","type":"uint256","internalType":"uint256"},{"name":"vote","type":"string","internalType":"string"}],"outputs":[],"stateMutability":"payable"},{"type":"function","name":"predictionCount","inputs":[],"outputs":[{"name":"","type":"uint256","internalType":"uint256"}],"stateMutability":"view"},{"type":"function","name":"predictions","inputs":[{"name":"","type":"uint256","internalType":"uint256"}],"outputs":[{"name":"id","type":"uint256","internalType":"uint256"},{"name":"title","type":"string","internalType":"string"},{"name":"category","type":"string","internalType":"string"},{"name":"yesVotes","type":"uint256","internalType":"uint256"},{"name":"noVotes","type":"uint256","internalType":"uint256"},{"name":"resolved","type":"bool","internalType":"bool"},{"name":"result","type":"string","internalType":"string"},{"name":"endTime","type":"uint256","internalType":"uint256"}],"stateMutability":"view"},{"type":"function","name":"resolvePrediction","inputs":[{"name":"predictionId","type":"uint256","internalType":"uint256"},{"name":"result","type":"string","internalType":"string"}],"outputs":[],"stateMutability":"nonpayable"},{"type":"function","name":"treasury","inputs":[],"outputs":[{"name":"","type":"address","internalType":"address"}],"stateMutability":"view"},{"type":"function","name":"userBets","inputs":[{"name":"","type":"address","internalType":"address"},{"name":"","type":"uint256","internalType":"uint256"}],"outputs":[{"name":"amount","type":"uint256","internalType":"uint256"},{"name":"vote","type":"string","internalType":"string"}],"stateMutability":"view"},{"type":"function","name":"withdraw","inputs":[{"name":"amount","type":"uint256","internalType":"uint256"}],"outputs":[],"stateMutability":"nonpayable"},{"type":"event","name":"BetPlaced","inputs":[{"name":"user","type":"address","indexed":true,"internalType":"address"},{"name":"predictionId","type":"uint256","indexed":false,"internalType":"uint256"},{"name":"vote","type":"string","indexed":false,"internalType":"string"},{"name":"amount","type":"uint256","indexed":false,"internalType":"uint256"}],"anonymous":false},{"type":"event","name":"PredictionCreated","inputs":[{"name":"id","type":"uint256","indexed":false,"internalType":"uint256"},{"name":"title","type":"string","indexed":false,"internalType":"string"},{"name":"category","type":"string","indexed":false,"internalType":"string"},{"name":"endTime","type":"uint256","indexed":false,"internalType":"uint256"}],"anonymous":false},{"type":"event","name":"PredictionResolved","inputs":[{"name":"predictionId","type":"uint256","indexed":false,"internalType":"uint256"},{"name":"result","type":"string","indexed":false,"internalType":"string"}],"anonymous":false},{"type":"event","name":"TreasuryUpdated","inputs":[{"name":"oldTreasury","type":"address","indexed":false,"internalType":"address"},{"name":"newTreasury","type":"address","indexed":false,"internalType":"address"}],"anonymous":false}],"bytecode":{"object":"0x6080604052348015600e575f5ffd5b50604051611478380380611478833981016040819052602b91605d565b60018054336001600160a01b031991821617909155600280549091166001600160a01b03929092169190911790556088565b5f60208284031215606c575f5ffd5b81516001600160a01b03811681146081575f5ffd5b9392505050565b6113e3806100955f395ff3fe6080604052600436106100be575f3560e01c80636f9fb98a1161007c5780638da5cb5b116100575780638da5cb5b1461021c5780638e0596a21461023b578063d472a5701461024f578063f9d20dda1461026e575f5ffd5b80636f9fb98a146101be5780638068aa68146101d05780638a69614e146101fd575f5ffd5b80624fbbb0146100c257806312065fe0146100fe57806327e235e3146101285780632e1a7d4d146101535780635e8af7351461017457806361d027b314610187575b5f5ffd5b3480156100cd575f5ffd5b506100e16100dc366004610e8b565b61028d565b6040516100f5989796959493929190610ed0565b60405180910390f35b348015610109575f5ffd5b50335f908152600560205260409020545b6040519081526020016100f5565b348015610133575f5ffd5b5061011a610142366004610f55565b60056020525f908152604090205481565b34801561015e575f5ffd5b5061017261016d366004610e8b565b610468565b005b610172610182366004611014565b610513565b348015610192575f5ffd5b506002546101a6906001600160a01b031681565b6040516001600160a01b0390911681526020016100f5565b3480156101c9575f5ffd5b504761011a565b3480156101db575f5ffd5b506101ef6101ea366004611058565b6108c5565b6040516100f5929190611080565b348015610208575f5ffd5b50610172610217366004610e8b565b610972565b348015610227575f5ffd5b506001546101a6906001600160a01b031681565b348015610246575f5ffd5b5061011a5f5481565b34801561025a575f5ffd5b506101726102693660046110a0565b610bc6565b348015610279575f5ffd5b50610172610288366004611014565b610cfa565b60036020525f9081526040902080546001820180549192916102ae9061110e565b80601f01602080910402602001604051908101604052809291908181526020018280546102da9061110e565b80156103255780601f106102fc57610100808354040283529160200191610325565b820191905f5260205f20905b81548152906001019060200180831161030857829003601f168201915b50505050509080600201805461033a9061110e565b80601f01602080910402602001604051908101604052809291908181526020018280546103669061110e565b80156103b15780601f10610388576101008083540402835291602001916103b1565b820191905f5260205f20905b81548152906001019060200180831161039457829003601f168201915b5050506003840154600485015460058601546006870180549697939692955060ff9091169350906103e19061110e565b80601f016020809104026020016040519081016040528092919081815260200182805461040d9061110e565b80156104585780601f1061042f57610100808354040283529160200191610458565b820191905f5260205f20905b81548152906001019060200180831161043b57829003601f168201915b5050505050908060070154905088565b335f908152600560205260409020548111156104c25760405162461bcd60e51b8152602060048201526014602482015273496e73756666696369656e742062616c616e636560601b60448201526064015b60405180910390fd5b335f90815260056020526040812080548392906104e090849061115a565b9091555050604051339082156108fc029083905f818181858888f1935050505015801561050f573d5f5f3e3d5ffd5b5050565b5f82815260036020526040902060050154829060ff16156105765760405162461bcd60e51b815260206004820152601b60248201527f50726564696374696f6e20616c7265616479207265736f6c766564000000000060448201526064016104b9565b5f8181526003602052604090206007015442106105d55760405162461bcd60e51b815260206004820152601960248201527f50726564696374696f6e2074696d652068617320656e6465640000000000000060448201526064016104b9565b5f34116106305760405162461bcd60e51b8152602060048201526024808201527f42657420616d6f756e74206d7573742062652067726561746572207468616e206044820152637a65726f60e01b60648201526084016104b9565b60408051808201909152600381526279657360e81b6020918201528251908301207f90dfb8fa37079daea9a1acb3e423e2351f0ba3fb27cf55bfa41ad2f8c58baea914806106bc57506040805180820190915260028152616e6f60f01b6020918201528251908301207f7d6119d3ee7f82ee53aac57d4d088f8bbaca5aac3191bb074252c6d760ae4eba145b6106f75760405162461bcd60e51b815260206004820152600c60248201526b496e76616c696420766f746560a01b60448201526064016104b9565b335f908152600460209081526040808320868452909152902080541561076f5760405162461bcd60e51b815260206004820152602760248201527f416c726561647920706c61636564206120626574206f6e2074686973207072656044820152663234b1ba34b7b760c91b60648201526084016104b9565b5f606461077d346001611173565b610787919061118a565b6002546040519192506001600160a01b03169082156108fc029083905f818181858888f193505050501580156107bf573d5f5f3e3d5ffd5b505f6107cb823461115a565b60408051808201909152600381526279657360e81b6020918201528651908701209091507f6f204705c8f86251565e534c1bdc1dcae0f45c04d830aa405be52d073a74515701610840575f86815260036020819052604082200180548392906108359084906111a9565b909155506108669050565b5f86815260036020526040812060040180548392906108609084906111a9565b90915550505b808355600183016108778682611205565b50336001600160a01b03167f02337a2de26093979fec9e25c4d2c7b6a8bd0c2fd9b3214ded831ac4f3d391e78787846040516108b5939291906112c0565b60405180910390a2505050505050565b600460209081525f9283526040808420909152908252902080546001820180549192916108f19061110e565b80601f016020809104026020016040519081016040528092919081815260200182805461091d9061110e565b80156109685780601f1061093f57610100808354040283529160200191610968565b820191905f5260205f20905b81548152906001019060200180831161094b57829003601f168201915b5050505050905082565b5f818152600360205260409020600581015460ff166109d35760405162461bcd60e51b815260206004820181905260248201527f50726564696374696f6e20686173206e6f74206265656e207265736f6c76656460448201526064016104b9565b335f90815260046020908152604080832085845290915290208054610a3a5760405162461bcd60e51b815260206004820181905260248201527f4e6f2062657420706c61636564206f6e20746869732070726564696374696f6e60448201526064016104b9565b6040515f90610a4d9060068501906112e8565b604051809103902082600101604051610a6691906112e8565b604051809103902003610b11575f83600401548460030154610a8891906111a9565b604080518082018252600381526279657360e81b602090910152519091505f907f90dfb8fa37079daea9a1acb3e423e2351f0ba3fb27cf55bfa41ad2f8c58baea990610ad89060068801906112e8565b604051809103902014610aef578460040154610af5565b84600301545b8454610b02908490611173565b610b0c919061118a565b925050505b5f80835560408051602081019091529081526001830190610b329082611205565b505f8111610b725760405162461bcd60e51b815260206004820152600d60248201526c4e6f207061796f75742064756560981b60448201526064016104b9565b335f9081526005602052604081208054839290610b909084906111a9565b9091555050604051339082156108fc029083905f818181858888f19350505050158015610bbf573d5f5f3e3d5ffd5b5050505050565b5f80549080610bd483611359565b909155505f9050610be582426111a9565b60408051610100810182525f805480835260208084018a81528486018a9052606085018490526080850184905260a085018490528551808301875284815260c086015260e0850187905291835260039052929020815181559151929350916001820190610c529082611205565b5060408201516002820190610c679082611205565b50606082015160038201556080820151600482015560a082015160058201805460ff191691151591909117905560c08201516006820190610ca89082611205565b5060e082015181600701559050507f7adb2b9b4bb3327ca96423a7659598a7be6105ccd9c886d6da364b2234b8660d5f54858584604051610cec9493929190611371565b60405180910390a150505050565b5f8281526003602052604090206005015460ff1615610d5b5760405162461bcd60e51b815260206004820152601b60248201527f50726564696374696f6e20616c7265616479207265736f6c766564000000000060448201526064016104b9565b60408051808201909152600381526279657360e81b6020918201528151908201207f90dfb8fa37079daea9a1acb3e423e2351f0ba3fb27cf55bfa41ad2f8c58baea91480610de757506040805180820190915260028152616e6f60f01b6020918201528151908201207f7d6119d3ee7f82ee53aac57d4d088f8bbaca5aac3191bb074252c6d760ae4eba145b610e245760405162461bcd60e51b815260206004820152600e60248201526d125b9d985b1a59081c995cdd5b1d60921b60448201526064016104b9565b5f82815260036020526040902060058101805460ff19166001179055600601610e4d8282611205565b507f16a88fc047b2450792af3484d2334ab9e8392c84252b078a02c88e4d6694bd838282604051610e7f929190611080565b60405180910390a15050565b5f60208284031215610e9b575f5ffd5b5035919050565b5f81518084528060208401602086015e5f602082860101526020601f19601f83011685010191505092915050565b88815261010060208201525f610eea61010083018a610ea2565b8281036040840152610efc818a610ea2565b905087606084015286608084015285151560a084015282810360c0840152610f248186610ea2565b9150508260e08301529998505050505050505050565b80356001600160a01b0381168114610f50575f5ffd5b919050565b5f60208284031215610f65575f5ffd5b610f6e82610f3a565b9392505050565b634e487b7160e01b5f52604160045260245ffd5b5f82601f830112610f98575f5ffd5b813567ffffffffffffffff811115610fb257610fb2610f75565b604051601f8201601f19908116603f0116810167ffffffffffffffff81118282101715610fe157610fe1610f75565b604052818152838201602001851015610ff8575f5ffd5b816020850160208301375f918101602001919091529392505050565b5f5f60408385031215611025575f5ffd5b82359150602083013567ffffffffffffffff811115611042575f5ffd5b61104e85828601610f89565b9150509250929050565b5f5f60408385031215611069575f5ffd5b61107283610f3a565b946020939093013593505050565b828152604060208201525f6110986040830184610ea2565b949350505050565b5f5f5f606084860312156110b2575f5ffd5b833567ffffffffffffffff8111156110c8575f5ffd5b6110d486828701610f89565b935050602084013567ffffffffffffffff8111156110f0575f5ffd5b6110fc86828701610f89565b93969395505050506040919091013590565b600181811c9082168061112257607f821691505b60208210810361114057634e487b7160e01b5f52602260045260245ffd5b50919050565b634e487b7160e01b5f52601160045260245ffd5b8181038181111561116d5761116d611146565b92915050565b808202811582820484141761116d5761116d611146565b5f826111a457634e487b7160e01b5f52601260045260245ffd5b500490565b8082018082111561116d5761116d611146565b601f82111561120057805f5260205f20601f840160051c810160208510156111e15750805b601f840160051c820191505b81811015610bbf575f81556001016111ed565b505050565b815167ffffffffffffffff81111561121f5761121f610f75565b6112338161122d845461110e565b846111bc565b6020601f821160018114611265575f831561124e5750848201515b5f19600385901b1c1916600184901b178455610bbf565b5f84815260208120601f198516915b828110156112945787850151825560209485019460019092019101611274565b50848210156112b157868401515f19600387901b60f8161c191681555b50505050600190811b01905550565b838152606060208201525f6112d86060830185610ea2565b9050826040830152949350505050565b5f5f83546112f58161110e565b60018216801561130c57600181146113215761134e565b60ff198316865281151582028601935061134e565b865f5260205f205f5b838110156113465781548882015260019091019060200161132a565b505081860193505b509195945050505050565b5f6001820161136a5761136a611146565b5060010190565b848152608060208201525f6113896080830186610ea2565b828103604084015261139b8186610ea2565b9150508260608301529594505050505056fea26469706673582212201ee04da05633f0c1ac4fe0b419e17bff0ed8fbaec962d3e525fb50632a2dc87d64736f6c634300081c0033","linkReferences":{}},"methodIdentifiers":{"balances(address)":"27e235e3","claimPayout(uint256)":"8a69614e","createPrediction(string,string,uint256)":"d472a570","getBalance()":"12065fe0","getContractBalance()":"6f9fb98a","owner()":"8da5cb5b","placeBet(uint256,string)":"5e8af735","predictionCount()":"8e0596a2","predictions(uint256)":"004fbbb0","resolvePrediction(uint256,string)":"f9d20dda","treasury()":"61d027b3","userBets(address,uint256)":"8068aa68","withdraw(uint256)":"2e1a7d4d"},"id":0}